:100000000C9435000C9452000C9452000C94520045
:100010000C9452000C9452000C9452000C94520018
:100020000C9452000C9452000C9452000C94520008
:100030000C9452000C9452000C9452000C945200F8
:100040000C9452000C9452000C9452000C945200E8
:100050000C9452000C9452000C9452000C945200D8
:100060000C9452000C945200E70011241FBECFEFF5
:10007000D8E0DEBFCDBF11E0A0E0B1E001C01D922D
:10008000A130B107E1F710E0CAE6D0E004C0229742
:10009000FE010E94ED00C836D107C9F70E94C500D5
:1000A0000C94F1000C940000259A08952D9A08955F
:1000B0002D9808952D990C9458000C94560008958D
:1000C000F89484B5826084BD84B58E7F84BD85B587
:1000D000877F85BDE4E6F0E080818F7D8083789422
:1000E00080E090E00895F894EEE6F0E08081826090
:1000F000808378940895F894EEE6F0E0808184603F
:10010000808378940895F8946130710599F068308F
:100110007105B1F060347105C9F0611581E07807AF
:10012000D9F06115744011F585B5856085BD85B53B
:100130008D7F17C085B5816085BD85B5897F11C06C
:1001400085B5826085BD85B58A7F0BC085B5836026
:1001500085BD85B58B7F05C085B5846085BD85B5BA
:100160008C7F85BD789480E090E0089578948FEF3F
:100170009FEF0895F89467BD7894089584B58368D7
:1001800084BD85B5569A559A0895F89484E190E017
:10019000909389008093880082E390E090938B0095
:1001A00080938A008091810081608093810080919A
:1001B0008100897F80938100809180008362809399
:1001C000800080918100569A559A7894FFCF80E004
:1001D00091E00C945400EE0FFF1F0590F491E02D78
:0601E0000994F894FFCF22
:00000001FF
